:020000040800F2
:1000000000800120010C0008550B00085D0B000862
:10001000650B00086D0B0008750B00080000000060
:100020000000000000000000000000007D0B000840
:100030008B0B000800000000990B0008A70B0008BC
:10004000510C0008510C0008510C0008510C00081C
:10005000510C0008510C0008510C0008510C00080C
:10006000510C0008510C0008510C0008510C0008FC
:10007000510C0008510C0008510C0008510C0008EC
:10008000510C0008510C0008B50B000800000000DE
:10009000000000000000000000000000510C0008FB
:1000A000510C0008510C0008510C0008510C0008BC
:1000B000510C0008510C0008510C0008510C0008AC
:1000C000510C0008510C0008510C0008510C00089C
:1000D000510C0008510C0008510C000800000000F1
:1000E000510C0008510C0008510C000800000000E1
:1000F000000000000000000000000000510C00089B
:1001000000000000510C0008510C0008510C0008C0
:1001100000000000000000000000000000000000DF
:10012000C90B0008510C0008510C0008510C0008C4
:10013000510C00080000000000000000000000005A
:10014000000000000000000000000000510C00084A
:10015000510C0008510C0008510C0008510C00080B
:10016000510C0008510C00080000000000000000C5
:10017000000000000000000000000000000000007F
:1001800000000000510C000800000000000000000A
:04019000510C000806
:1001940010B5054C237833B9044B13B10448AFF3BD
:1001A40000800123237010BD0C000020000000001B
:1001B400A02E000808B5034B1BB103490348AFF355
:1001C400008008BD0000000010000020A02E0008E0
:1001D40053B94AB9002908BF00281CBF4FF0FF31AA
:1001E4004FF0FF3000F06AB9ADF1080C6DE904CEB0
:1001F40000F006F8DDF804E0DDE9022304B07047FE
:100204002DE9F047089D0C46002B4ED194468C45B1
:100214008646B2FA82F262D94AB1C2F12003914011
:1002240020FA03F30CFA02FC194300FA02FE4FEA27
:100234001C471FFA8CF6B1FBF7F44FEA1E4307FB89
:10024400141143EA014304FB06F199420AD91CEB59
:10025400030304F1FF3080F01281994240F20F81D0
:10026400023C6344591A1FFA8EF3B1FBF7F007FB03
:10027400101143EA014300FB06F69E420AD91CEB27
:10028400030300F1FF3180F0FC809E4240F2F980CC
:10029400634402389B1B40EA044000211DB1D34053
:1002A4000022C5E90032BDE8F0878B4205D90DB1C3
:1002B400C5E9000100210846F5E7B3FA83F10029F6
:1002C40046D1A34202D39042C0F0F080861A64EB78
:1002D40003030120002DE6D0C5E90063E3E7002A0B
:1002E40040F09080A1EB0C044FEA1C481FFA8CF7F5
:1002F4000121B4FBF8F64FEA1E4308FB164443EA17
:10030400044307FB06F0984208D91CEB030306F1EB
:10031400FF3402D2984200F2CD8026461C1A1FFAFE
:100324008EF3B4FBF8F008FB104443EA044300FBEB
:1003340007F79F4208D91CEB030300F1FF3402D2F4
:100344009F4200F2B0802046DB1B40EA0640A5E74E
:10035400C1F120068B4022FA06F71F4320FA06FC5F
:1003640004FA01F343EA0C03F44000FA01F8380CF0
:100374004FEA1349B4FBF0FE1FFA87FC00FB1E444E
:1003840049EA04440EFB0CF9A14502FA01F20AD928
:100394003C190EF1FF3A80F08480A14540F281803F
:1003A400AEF1020E3C44A4EB09041FFA83F9B4FB3A
:1003B400F0F300FB134449EA044403FB0CFCA4459A
:1003C40007D93C1903F1FF3067D2A44565D9023B34
:1003D4003C4443EA0E40A0FB0293A4EB0C049C4271
:1003E400CE469C4651D34ED055B1B8EB0E0364EBC8
:1003F4000C0404FA06F6CB401E43CC40C5E9006465
:10040400002150E7C2F1200320FA03F10CFA02FCA8
:1004140024FA03F394400C434FEA1C4800FA02FE0A
:100424001FFA8CF7B3FBF8F008FB1031230C43EAF6
:10043400014300FB07F1994208D91CEB030300F1C7
:10044400FF362CD299422AD9023863445B1AA4B2EB
:10045400B3FBF8F108FB113344EA034401FB07F34F
:10046400A34208D91CEB040401F1FF3613D2A342C2
:1004740011D902396444E41A41EA004139E70446D7
:10048400F0E6084606E7C845AED2B9EB020E63EBC8
:10049400070C0138A8E73146EDE7034699E73046F3
:1004A400D4E7D6467FE7634402384DE70646234641
:1004B40008460FE7023E634430E700BF704700BFC1
:1004C40080B58CB000AF78607B681B68394A934272
:1004D4006CD1394BB3F900301A46384B53F82230FB
:1004E4009AB2374B1A8007F10803202200211846DC
:1004F40002F0A8FC8023FB620023BB6216E0304BB1
:100504001B881A46FB6A1340002B14BF01230023E7
:10051400DBB21A46BB6A9B0030333B4443F8282CB9
:10052400FB6A5B10FB62BB6A0133BB62BB6A072BCD
:10053400E5DDBB68DBB21A460221224802F044F82A
:10054400FB68DBB21A4604211E4802F03DF83B6901
:10055400DBB21A464FF480511A4802F035F87B6931
:10056400DBB21A464FF40061174802F02DF8BB695C
:10057400DBB21A464FF48051134802F025F8FB69A8
:10058400DBB21A462021114802F01EF83B6ADBB2A6
:100594001A4640210D4802F017F87B6ADBB21A466E
:1005A4004FF48071094802F00FF800E000BF3037C3
:1005B400BD4680BD00200140F0000020D000002096
:1005C400F200002000040240000002400008024043
:1005D40080B582B000AF4FF48071194801F0DCFFA0
:1005E4000346FB804FF40071154801F0D5FF034624
:1005F400BB804FF48061134801F0CEFF03467B803B
:10060400FB889B009AB2BB885B009BB213449AB2EE
:100614007B8813449BB21AB20B4B1A8008220B49F5
:100624000B4800F0FBFD0A4800F0ECFB012000F051
:1006340081FB074800F0A4FC00BF0837BD4680BD1D
:100644000000024000040240F0000020D00000201E
:100654002800002080B500AF00F0FAFA00F00AF894
:1006640000F02EF900F00CF900F064F8FFF7B0FF89
:10067400FCE7000080B594B000AF07F120033022FE
:100684000021184602F0DEFB07F10C0300221A6079
:100694005A609A60DA601A610023BB60234B1B6CBA
:1006A400224A43F080531364204B1B6C03F08053A5
:1006B400BB60BB6800237B601D4B1B6823F4404375
:1006C4001B4A43F400431360194B1B6803F4404373
:1006D4007B607B6802233B620123FB6210233B6344
:1006E4000023BB6307F12003184601F087FF03468C
:1006F400002B01D000F07EF90F23FB6000233B6147
:1007040000237B610023BB610023FB6107F10C0321
:100714000021184602F0EAF90346002B01D000F04C
:1007240069F900BF5037BD4680BD00BF00380240A4
:100734000070004080B584B000AF3B4600221A60D0
:100744005A609A60DA604B4B4B4A1A60494B00225C
:100754005A60484B4FF000729A60464B01221A616E
:10076400444B01221A76434B002283F82020414B4C
:100774000022DA623F4B414A9A623E4B0022DA6021
:100784003C4B0822DA613B4B002283F83020394B82
:1007940001225A61374800F0F1FA0346002B01D0D8
:1007A40000F028F901233B6002237B600023BB6037
:1007B4003B4619462F4800F03FFE0346002B01D06C
:1007C40000F018F902233B6003237B603B46194683
:1007D400284800F031FE0346002B01D000F00AF94E
:1007E40003233B6004237B603B461946214800F009
:1007F40023FE0346002B01D000F0FCF804233B60E9
:1008040005237B603B4619461A4800F015FE034653
:10081400002B01D000F0EEF805233B6006237B603B
:100824003B461946134800F007FE0346002B01D04F
:1008340000F0E0F806233B6007237B603B46194643
:100844000C4800F0F9FD0346002B01D000F0D2F86B
:1008540007233B6008237B603B461946054800F0AC
:10086400EBFD0346002B01D000F0C4F800BF1037A5
:10087400BD4680BD28000020002001400100000F7B
:1008840080B582B000AF00237B600C4B1B6B0B4A1E
:1008940043F480031363094B1B6B03F480037B60F5
:1008A4007B6800220021382001F04BF9382001F048
:1008B40064F900BF0837BD4680BD00BF0038024060
:1008C40080B588B000AF07F10C0300221A605A60AB
:1008D4009A60DA601A610023BB60424B1B6B414A89
:1008E40043F0010313633F4B1B6B03F00103BB6035
:1008F400BB6800237B603B4B1B6B3A4A43F0040309
:100904001363384B1B6B03F004037B607B68002389
:100914003B60344B1B6B334A43F002031363314B8C
:100924001B6B03F002033B603B6800224FF4B07181
:100934002D4801F049FE002241F206012B4801F046
:1009440043FE00224FF4C051294801F03DFE4FF40C
:10095400B073FB6001233B6102237B610223BB6113
:1009640007F10C031946204801F092FC41F20603FA
:10097400FB6001233B6102237B610223BB6107F11E
:100984000C031946194801F083FC4FF48063FB60A3
:1009940000233B6100237B6107F10C0319461348D4
:1009A40001F076FC4FF44073FB6000233B610023AD
:1009B4007B6107F10C0319460D4801F069FC4FF403
:1009C400C053FB6001233B6102237B610223BB61B3
:1009D40007F10C031946064801F05AFC00BF203702
:1009E400BD4680BD003802400008024000040240B9
:1009F4000000024080B400AF72B600BF00BFFDE744
:100A040080B483B000AF00237B60104B5B6C0F4A53
:100A140043F4804353640D4B5B6C03F480437B606D
:100A24007B6800233B60094B1B6C084A43F08053EE
:100A34001364064B1B6C03F080533B603B6800BFA0
:100A44000C37BD465DF8047B704700BF0038024098
:100A540080B58AB000AF786007F1140300221A60F1
:100A64005A609A60DA601A617B681B68334A934261
:100A740060D100233B61324B5B6C314A43F4807399
:100A840053642F4B5B6C03F480733B613B6900231D
:100A9400FB602B4B1B6B2A4A43F001031363284B67
:100AA4001B6B03F00103FB60FB68FF237B610323E3
:100AB400BB610023FB6107F114031946214801F0CF
:100AC400E7FB214B214A1A601F4B00225A601E4B40
:100AD40000229A601C4B0022DA601B4B4FF48062A8
:100AE4001A61194B4FF480525A61174B4FF48042EC
:100AF4009A61154B4FF48072DA61134B4FF4003254
:100B04001A62114B00225A620F4801F051F8034651
:100B1400002B01D0FFF76EFF7B680B4A9A630A4AE9
:100B24007B68936300220021122001F00AF812204E
:100B340001F023F800BF2837BD4680BD00200140E6
:100B4400003802400000024070000020106402409F
:100B540080B400AF00BFFDE780B400AF00BFFDE785
:100B640080B400AF00BFFDE780B400AF00BFFDE775
:100B740080B400AF00BFFDE780B400AF00BFBD4646
:100B84005DF8047B704780B400AF00BFBD465DF8DC
:100B9400047B704780B400AF00BFBD465DF8047BA2
:100BA400704780B500AF00F0A5F800BF80BD00001D
:100BB40080B500AF024800F020FA00BF80BD00BF3E
:100BC4002800002080B500AF024801F0F7F800BF0C
:100BD40080BD00BF7000002080B400AF064BD3F886
:100BE4008830054A43F47003C2F8883000BFBD461C
:100BF4005DF8047B704700BF00ED00E0DFF834D0FF
:100C0400FFF7EAFF0C480D490D4A002302E0D458CF
:100C1400C4500433C4188C42F9D30A4A0A4C002342
:100C240001E013600432A242FBD302F013F9FFF790
:100C340011FD704700800120000000200C000020FE
:100C4400E02E00080C000020F8000020FEE7000061
:100C540080B500AF0E4B1B680D4A43F4007313605C
:100C64000B4B1B680A4A43F480631360084B1B68F0
:100C7400074A43F480731360032000F057FF0F20EA
:100C840000F008F8FFF7BCFE0023184680BD00BF43
:100C9400003C024080B582B000AF7860124B1A6805
:100CA400124B1B7819464FF47A73B3FBF1F3B2FB82
:100CB400F3F3184600F06FFF0346002B01D0012325
:100CC4000EE07B680F2B0AD8002279684FF0FF30C2
:100CD40000F037FF064A7B681360002300E001231D
:100CE40018460837BD4680BD0000002008000020DB
:100CF4000400002080B400AF064B1B781A46064B54
:100D04001B681344044A136000BFBD465DF8047BAE
:100D1400704700BF08000020F400002080B400AF3A
:100D2400034B1B681846BD465DF8047B704700BF43
:100D3400F400002080B584B000AF7860FFF7EEFFC8
:100D4400B8607B68FB60FB68B3F1FF3F05D00A4BDA
:100D54001B781A46FB681344FB6000BFFFF7DEFFF5
:100D64000246BB68D31AFA689A42F7D800BF00BF9C
:100D74001037BD4680BD00BF0800002080B584B098
:100D840000AF78600023FB737B68002B01D1012343
:100D940033E07B681B6C002B09D17868FFF758FEA1
:100DA4007B6800225A647B68002283F83C207B68BD
:100DB4001B6C03F01003002B18D17B681B6C23F40D
:100DC400885323F0020343F002027B681A647868B4
:100DD40000F054FC7B6800225A647B681B6C23F08F
:100DE400030343F001027B681A6401E00123FB73EF
:100DF4007B68002283F83C20FB7B18461037BD46F5
:100E040080BD000080B485B000AF78600023BB6073
:100E14007B6893F83C30012B01D10223A1E07B686D
:100E2400012283F83C207B681B689B6803F0010364
:100E3400012B18D07B681B689A687B681B6842F09A
:100E440001029A604A4B1B684A4AA2FB03239A0C8C
:100E540013465B001344BB6002E0BB68013BBB600C
:100E6400BB68002BF9D17B681B689B6803F0010306
:100E7400012B69D17B681B6C23F4E06323F001032D
:100E840043F480727B681A647B681B685B6803F4B4
:100E94008063002B07D07B681B6C23F4405343F41E
:100EA40080527B681A647B681B6C03F48053B3F52F
:100EB400805F06D17B685B6C23F006027B685A6412
:100EC40002E07B6800225A647B68002283F83C209D
:100ED400294BFB607B681B686FF022021A607B68F9
:100EE4001B685B687A68126843F0806343F02003F0
:100EF4005360FB685B6803F01F03002B0FD17B6812
:100F04001B689B6803F04053002B29D17B681B6846
:100F14009A687B681B6842F080429A6020E07B6894
:100F24001B68164A93421BD17B681B689B6803F0BD
:100F34004053002B14D17B681B689A687B681B683C
:100F440042F080429A600BE07B681B6C43F0100215
:100F54007B681A647B685B6C43F001027B685A64AB
:100F6400002318461437BD465DF8047B704700BF64
:100F74000000002083DE1B430023014000200140C9
:100F840080B483B000AF78607B6893F83C30012B69
:100F940001D102232BE07B68012283F83C207B688B
:100FA4001B689A687B681B6822F001029A607B6860
:100FB4001B689B6803F00103002B13D17B681B683B
:100FC4005B687A68126823F0806323F0200353601F
:100FD4007B681B6C23F4885323F0010343F0010264
:100FE4007B681A647B68002283F83C20002318463F
:100FF4000C37BD465DF8047B704780B586B000AF02
:10100400786000237B6100233B617B681B681B685D
:10101400FB607B681B685B68BB60FB6803F00203D2
:101024007B61BB6803F020033B617B69002B49D0E3
:101034003B69002B46D07B681B6C03F01003002B2C
:1010440005D17B681B6C43F400727B681A647B686F
:101054001B689B6803F04053002B2BD17B681B7EDD
:10106400002B27D17B681B68DB6A03F47003002B19
:1010740006D07B681B689B6803F48063002B19D13E
:101084007B681B685A687B681B6822F020025A60E0
:101094007B681B6C23F480727B681A647B681B6C0E
:1010A40003F48053002B05D17B681B6C43F00102D1
:1010B4007B681A647868FFF703FA7B681B686FF033
:1010C40012021A60FB6803F004037B61BB6803F03F
:1010D40080033B617B69002B57D03B69002B54D0C4
:1010E4007B681B6C03F01003002B05D17B681B6C21
:1010F40043F400527B681A647B681B689B6803F4A2
:101104004013002B39D17B681B689B6B03F440139D
:10111400002B06D07B681B689B6803F48063002B5C
:101124002BD17B681B685B6803F48063002B24D19C
:101134007B681B689B6803F04053002B1DD17B68C0
:101144001B7E002B19D17B681B685A687B681B685F
:1011540022F080025A607B681B6C23F480527B6807
:101164001A647B681B6C03F48073002B05D17B68C5
:101174001B6C43F001027B681A64786800F0FCFB86
:101184007B681B686FF00C021A60FB6803F00103B4
:101194007B61BB6803F040033B617B69002B17D084
:1011A4003B69002B14D07B681B681B6803F00103A8
:1011B400012B0DD17B681B6C43F480327B681A646D
:1011C400786800F025F97B681B686FF001021A60EB
:1011D400FB6803F020037B61BB6803F080633B6121
:1011E4007B69002B15D03B69002B12D07B685B6CAC
:1011F40043F002027B685A647B681B686FF020022C
:101204001A60786800F00EF97B681B686FF02002A2
:101214001A6000BF1837BD4680BD000080B586B097
:1012240000AFF860B9607A6000233B61FB6893F813
:101234003C30012B01D10223CEE0FB68012283F86C
:101244003C20FB681B689B6803F00103012B18D04A
:10125400FB681B689A68FB681B6842F001029A608D
:101264005F4B1B685F4AA2FB03239A0C13465B0087
:1012740013443B6102E03B69013B3B613B69002B4A
:10128400F9D1FB681B689B6803F48073B3F5807F16
:1012940007D1FB681B689A68FB681B6822F480729C
:1012A4009A60FB681B689B6803F00103012B40F004
:1012B4008680FB681B6C23F4E06323F0010343F492
:1012C4008072FB681A64FB681B685B6803F48063C4
:1012D400002B07D0FB681B6C23F4405343F480526B
:1012E400FB681A64FB681B6C03F48053B3F5805FDE
:1012F40006D1FB685B6C23F00602FB685A6402E0CB
:10130400FB6800225A64FB68002283F83C20364BB9
:101314007B61FB689B6B354ADA63FB689B6B344AE1
:101324001A64FB689B6B334ADA64FB681B686FF0D2
:1013340022021A60FB681B685A68FB681B6842F04B
:1013440080625A60FB681B689A68FB681B6842F4F9
:1013540080729A60FB68986BFB681B684C33194673
:10136400BA687B6800F0D2FC7B695B6803F01F03FA
:10137400002B0FD1FB681B689B6803F04053002BC4
:1013840029D1FB681B689A68FB681B6842F080429D
:101394009A6020E0FB681B68174A93421BD1FB68E4
:1013A4001B689B6803F04053002B14D1FB681B6837
:1013B4009A68FB681B6842F080429A600BE0FB6805
:1013C4001B6C43F01002FB681A64FB685B6C43F00F
:1013D4000102FB685A64002318461837BD4680BDD5
:1013E4000000002083DE1B4300230140791800081D
:1013F400331900084F1900080020014080B483B05D
:1014040000AF786000BF0C37BD465DF8047B7047C1
:1014140080B483B000AF786000BF0C37BD465DF880
:10142400047B704780B483B000AF786000BF0C3792
:10143400BD465DF8047B704780B485B000AF78602A
:1014440039600023BB607B6893F83C30012B01D1E9
:10145400022305E17B68012283F83C203B681B687A
:10146400092B25D97B681B68D9683B681B689BB22C
:101474001A4613465B0013441E3B072202FA03F389
:10148400DA437B681B680A40DA607B681B68D968AA
:101494003B689A683B681B689BB2184603465B002E
:1014A40003441E3B9A407B681B680A43DA6022E0CF
:1014B4007B681B6819693B681B689BB21A46134614
:1014C4005B001344072202FA03F3DA437B681B68C8
:1014D4000A401A617B681B6819693B689A683B6813
:1014E4001B689BB2184603465B0003449A407B6822
:1014F4001B680A431A613B685B68062B24D87B6827
:101504001B68596B3B685A6813469B001344053BA0
:101514001F2202FA03F3DA437B681B680A405A630A
:101524007B681B68596B3B681B689BB218463B6819
:101534005A6813469B001344053B00FA03F27B6888
:101544001B680A435A634CE03B685B680C2B24D845
:101554007B681B68196B3B685A6813469B001344ED
:10156400233B1F2202FA03F3DA437B681B680A4019
:101574001A637B681B68196B3B681B689BB218462F
:101584003B685A6813469B001344233B00FA03F25A
:101594007B681B680A431A6323E07B681B68D96A6B
:1015A4003B685A6813469B001344413B1F2202FACE
:1015B40003F3DA437B681B680A40DA627B681B68C2
:1015C400D96A3B681B689BB218463B685A68134645
:1015D4009B001344413B00FA03F27B681B680A43F7
:1015E400DA62224BFB607B681B68214A934209D173
:1015F4003B681B68122B05D1FB685B6843F48002CF
:10160400FB685A607B681B68194A934223D13B6884
:101614001B68102B03D03B681B68112B1BD1FB6884
:101624005B6843F40002FB685A603B681B68102B3C
:1016340011D1104B1B68104AA2FB03239A0C1346CA
:101644009B0013445B00BB6002E0BB68013BBB60D2
:10165400BB68002BF9D17B68002283F83C2000236F
:1016640018461437BD465DF8047B704700230140DB
:10167400002001400000002083DE1B4380B485B0BD
:1016840000AF7860794BFB60FB685B6823F4403201
:10169400FB685A60FB685A687B685B681A43FB689E
:1016A4005A607B681B685A687B681B6822F48072E6
:1016B4005A607B681B6859687B681B691A027B68DF
:1016C4001B680A435A607B681B685A687B681B68FE
:1016D40022F040725A607B681B6859687B689A687C
:1016E4007B681B680A435A607B681B689A687B683E
:1016F4001B6822F400629A607B681B6899687B68A7
:10170400DA687B681B680A439A607B689B6A584A5C
:10171400934222D07B681B689A687B681B6822F01E
:1017240070629A607B681B6899687B689A6A7B68B8
:101734001B680A439A607B681B689A687B681B680D
:1017440022F040529A607B681B6899687B68DA6A69
:101754007B681B680A439A600FE07B681B689A6881
:101764007B681B6822F070629A607B681B689A68C9
:101774007B681B6822F040529A607B681B689A68F9
:101784007B681B6822F002029A607B681B68996878
:101794007B681B7E5A007B681B680A439A607B68DF
:1017A40093F82030002B1BD07B681B685A687B6839
:1017B4001B6842F400625A607B681B685A687B6845
:1017C4001B6822F460425A607B681B6859687B6816
:1017D4005B6A013B5A037B681B680A435A6007E053
:1017E4007B681B685A687B681B6822F400625A6035
:1017F4007B681B68DA6A7B681B6822F47002DA6211
:101804007B681B68D96A7B68DB69013B1A057B68C6
:101814001B680A43DA627B681B689A687B681B68EA
:1018240022F400729A607B681B6899687B6893F85D
:1018340030305A027B681B680A439A607B681B68D5
:101844009A687B681B6822F480629A607B681B68D4
:1018540099687B685B699A027B681B680A439A6093
:1018640000BF1437BD465DF8047B70470023014078
:101874000100000F80B584B000AF78607B689B6B7B
:10188400FB60FB681B6C03F05003002B3CD1FB682E
:101894001B6C43F40072FB681A64FB681B689B684A
:1018A40003F04053002B2BD1FB681B7E002B27D168
:1018B400FB681B68DB6A03F47003002B06D0FB682B
:1018C4001B689B6803F48063002B19D1FB681B68B9
:1018D4005A68FB681B6822F020025A60FB681B6C84
:1018E40023F48072FB681A64FB681B6C03F4805356
:1018F400002B05D1FB681B6C43F00102FB681A64E2
:10190400F868FEF7DDFD0EE0FB681B6C03F01003C6
:10191400002B03D0F868FFF785FD04E0FB689B6BA0
:10192400DB6C7868984700BF1037BD4680BD80B532
:1019340084B000AF78607B689B6BFB60F868FFF74E
:101944005DFD00BF1037BD4680BD80B584B000AFDB
:1019540078607B689B6BFB60FB6840221A64FB68C1
:101964005B6C43F00402FB685A64F868FFF75AFDA5
:1019740000BF1037BD4680BD80B483B000AF78602F
:1019840000BF0C37BD465DF8047B704780B485B05A
:1019940000AF78607B6803F00703FB600C4BDB68E7
:1019A400BB60BA684FF6FF031340BB60FB681A02C2
:1019B400BB68134343F0BF6343F40033BB60044A82
:1019C400BB68D36000BF1437BD465DF8047B704725
:1019D40000ED00E080B400AF044BDB681B0A03F0A9
:1019E40007031846BD465DF8047B704700ED00E030
:1019F40080B483B000AF0346FB7197F90730002B26
:101A04000BDBFB7903F01F02074997F907305B09E9
:101A1400012000FA02F241F8232000BF0C37BD4632
:101A24005DF8047B704700BF00E100E080B483B040
:101A340000AF03463960FB7197F90730002B0ADBCE
:101A44003B68DAB20C4997F907301201D2B20B4461
:101A540083F800230AE03B68DAB20849FB7903F013
:101A64000F03043B1201D2B20B441A7600BF0C37A9
:101A7400BD465DF8047B704700E100E000ED00E046
:101A840080B489B000AFF860B9607A60FB6803F095
:101A94000703FB61FB69C3F10703042B28BF04237D
:101AA400BB61FB690433062B02D9FB69033B00E0ED
:101AB40000237B614FF0FF32BB6902FA03F3DA4380
:101AC400BB681A407B699A404FF0FF317B6901FA89
:101AD40003F3D9437B680B40134318462437BD46B0
:101AE4005DF8047B7047000080B582B000AF786079
:101AF4007B68013BB3F1807F01D301230FE00A4AE5
:101B04007B68013B53600F214FF0FF30FFF78EFFDE
:101B1400054B00229A60044B07221A6000231846E2
:101B24000837BD4680BD00BF10E000E080B582B03C
:101B340000AF78607868FFF729FF00BF0837BD461B
:101B440080BD80B586B000AF0346B9607A60FB7390
:101B540000237B61FFF73EFF78617A68B968786992
:101B6400FFF78EFF024697F90F3011461846FFF72C
:101B74005DFF00BF1837BD4680BD80B582B000AFA1
:101B84000346FB7197F907301846FFF731FF00BF92
:101B94000837BD4680BD80B582B000AF78607868F4
:101BA400FFF7A2FF034618460837BD4680BD000074
:101BB40080B586B000AF786000237B61FFF7AEF894
:101BC40038617B68002B01D1012399E07B680222F4
:101BD40083F835207B68002283F834207B681B68F7
:101BE4001A687B681B6822F001021A600FE0FFF795
:101BF40095F802463B69D31A052B08D97B68202245
:101C04005A657B68032283F83520032378E07B68D8
:101C14001B681B6803F00103002BE8D17B681B6879
:101C24001B687B617A69384B13407B617B685A6817
:101C34007B689B681A437B68DB681A437B681B6973
:101C44001A437B685B691A437B689B691A437B6808
:101C5400DB691A437B681B6A13437A6913437B610C
:101C64007B685B6A042B07D17B68DA6A7B681B6B31
:101C740013437A6913437B617B681B687A691A6032
:101C84007B681B685B697B617B6923F007037B616D
:101C94007B685B6A7A6913437B617B685B6A042BAC
:101CA40017D17B689B6A7A6913437B617B68DB6A23
:101CB400002B0ED0786800F06FFA0346002B08D092
:101CC4007B6840225A657B68012283F83520012312
:101CD40016E07B681B687A695A61786800F026FA16
:101CE4000346FB607B68DB6D3F229A40FB689A6089
:101CF4007B6800225A657B68012283F83520002323
:101D040018461837BD4680BD3F8010F080B586B0B8
:101D140000AFF860B9607A603B600023FB75FB6834
:101D24009B6D3B61FB6893F83430012B01D1022396
:101D340040E0FB68012283F83420FB6893F83530D7
:101D4400DBB2012B2FD1FB68022283F83520FB681C
:101D540000225A653B687A68B968F86800F0B8F9F7
:101D6400FB68DB6D3F229A403B699A60FB681B6805
:101D74001A68FB681B6842F016021A60FB681B6C49
:101D8400002B07D0FB681B681A68FB681B6842F0CD
:101D940008021A60FB681B681A68FB681B6842F03B
:101DA40001021A6005E0FB68002283F83420022354
:101DB400FB75FB7D18461837BD4680BD80B586B0DF
:101DC40000AF78600023BB608E4B1B688E4AA2FB79
:101DD40003239B0A7B617B689B6D3B613B691B68AA
:101DE400FB607B68DB6D08229A40FB681340002B84
:101DF4001AD07B681B681B6803F00403002B13D004
:101E04007B681B681A687B681B6822F004021A60EE
:101E14007B68DB6D08229A403B699A607B685B6D46
:101E240043F001027B685A657B68DB6D01229A40AE
:101E3400FB681340002B12D07B681B685B6903F0BE
:101E44008003002B0BD07B68DB6D01229A403B6939
:101E54009A607B685B6D43F002027B685A657B681D
:101E6400DB6D04229A40FB681340002B12D07B6880
:101E74001B681B6803F00203002B0BD07B68DB6D2F
:101E840004229A403B699A607B685B6D43F00402CC
:101E94007B685A657B68DB6D10229A40FB681340AF
:101EA400002B43D07B681B681B6803F00803002BDE
:101EB4003CD07B68DB6D10229A403B699A607B685A
:101EC4001B681B6803F48023002B18D07B681B68F5
:101ED4001B6803F40023002B08D17B681B6C002BC8
:101EE40024D07B681B6C786898471FE07B689B6CE8
:101EF400002B1BD07B689B6C7868984716E07B6846
:101F04001B681B6803F48073002B07D17B681B6874
:101F14001A687B681B6822F008021A607B681B6CD5
:101F2400002B03D07B681B6C786898477B68DB6D5B
:101F340020229A40FB681340002B00F08F807B68BE
:101F44001B681B6803F01003002B00F087807B687C
:101F5400DB6D20229A403B699A607B6893F83530A8
:101F6400DBB2052B36D17B681B681A687B681B685B
:101F740022F016021A607B681B685A697B681B682A
:101F840022F080025A617B681B6C002B03D17B68B2
:101F94009B6C002B07D07B681B681A687B681B68E6
:101FA40022F008021A607B68DB6D3F229A403B698D
:101FB4009A607B68012283F835207B68002283F8CD
:101FC40034207B681B6D002B7ED07B681B6D78688A
:101FD400984779E07B681B681B6803F48023002B17
:101FE4001DD07B681B681B6803F40023002B0DD1F4
:101FF4007B685B6C002B31D07B685B6C786898479E
:102004002CE000BF00000020B5814E1B7B68DB6B19
:10201400002B23D07B68DB6B786898471EE07B68D5
:102024001B681B6803F48073002B0FD17B681B684B
:102034001A687B681B6822F010021A607B68012210
:1020440083F835207B68002283F834207B68DB6BBF
:10205400002B03D07B68DB6B786898477B685B6DEB
:10206400002B32D07B685B6D03F00103002B22D080
:102074007B68052283F835207B681B681A687B68B7
:102084001B6822F001021A60BB680133BB607A69E5
:102094009A4207D37B681B681B6803F00103002B7B
:1020A400F2D100E000BF7B68012283F835207B6811
:1020B400002283F834207B68DB6C002B05D07B681E
:1020C400DB6C7868984700E000BF1837BD4680BDD8
:1020D40080B485B000AFF860B9607A603B60FB689B
:1020E4001B681A68FB681B6822F480221A60FB686C
:1020F4001B683A685A60FB689B68402B08D1FB68F0
:102104001B687A689A60FB681B68BA68DA6007E043
:10211400FB681B68BA689A60FB681B687A68DA60B7
:1021240000BF1437BD465DF8047B704780B485B0AA
:1021340000AF78607B681B68DBB2103B144AA2FBDB
:1021440003231B09FB60134AFB6813441B781A46DC
:102154007B68DA65FB68032B09D97B681B6823F469
:102164007F7323F003031A1D7B689A6507E07B687D
:102174001B6823F47F7323F003037A6893657B68F9
:102184009B6D18461437BD465DF8047B704700BF4D
:10219400ABAAAAAAC82E000880B485B000AF7860A4
:1021A4000023FB737B689B6ABB607B689B69002B85
:1021B4001FD1BB68032B56D801A252F823F000BFED
:1021C400D5210008E7210008D52100086B2200086A
:1021D4007B68DB6A03F08073002B46D00123FB731A
:1021E40043E07B68DB6AB3F1C07F40D10123FB731A
:1021F4003DE07B689B69B3F5005F21D1BB68032B8D
:1022040037D801A252F823F01D2200082322000827
:102214001D220008352200080123FB7330E07B688F
:10222400DB6A03F08073002B25D00123FB7322E0CB
:102234007B68DB6AB3F1C07F1FD10123FB731CE011
:10224400BB68022B03D9BB68032B03D018E001231E
:10225400FB7315E07B68DB6A03F08073002B0ED000
:102264000123FB730BE000BF0AE000BF08E000BFDE
:1022740006E000BF04E000BF02E000BF00E000BFD2
:10228400FB7B18461437BD465DF8047B704700BFDE
:1022940080B489B000AF7860396000237B6100238B
:1022A4003B610023BB610023FB6159E10122FB690F
:1022B40002FA03F37B613B681B687A6913403B6154
:1022C4003A697B699A4240F048813B685B6803F055
:1022D4000303012B05D03B685B6803F00303022B67
:1022E40030D17B689B68BB61FB695B00032202FA07
:1022F40003F3DB43BA691340BB613B68DA68FB69EB
:102304005B0002FA03F3BA691343BB617B68BA69E1
:102314009A607B685B68BB610122FB6902FA03F384
:10232400DB43BA691340BB613B685B681B0903F07C
:102334000102FB6902FA03F3BA691343BB617B68C8
:10234400BA695A603B685B6803F00303032B17D038
:102354007B68DB68BB61FB695B00032202FA03F361
:10236400DB43BA691340BB613B689A68FB695B0055
:1023740002FA03F3BA691343BB617B68BA69DA6092
:102384003B685B6803F00303022B23D1FB69DA0883
:102394007B68083253F82230BB61FB6903F0070302
:1023A4009B000F2202FA03F3DB43BA691340BB61BB
:1023B4003B681A69FB6903F007039B0002FA03F305
:1023C400BA691343BB61FB69DA087B680832B969EF
:1023D40043F822107B681B68BB61FB695B00032226
:1023E40002FA03F3DB43BA691340BB613B685B68E1
:1023F40003F00302FB695B0002FA03F3BA691343B7
:10240400BB617B68BA691A603B685B6803F440335C
:10241400002B00F0A2800023FB60574B5B6C564AF4
:1024240043F480435364544B5B6C03F48043FB607C
:10243400FB68524AFB699B08023352F82330BB61A4
:10244400FB6903F003039B000F2202FA03F3DB434F
:10245400BA691340BB617B68494A934219D07B68CF
:10246400484A934213D07B68474A93420DD07B6815
:10247400464A934207D07B68454A934201D10423DC
:1024840008E0072306E0032304E0022302E001231B
:1024940000E00023FA6902F0030292009340BA6953
:1024A4001343BB613549FB699B080233BA6941F8A0
:1024B4002320384B9B68BB613B69DB43BA691340FB
:1024C400BB613B685B6803F48013002B03D0BA69DB
:1024D4003B691343BB612F4ABB6993602D4BDB6897
:1024E400BB613B69DB43BA691340BB613B685B6812
:1024F40003F40013002B03D0BA693B691343BB6197
:10250400244ABB69D360234B5B68BB613B69DB43F3
:10251400BA691340BB613B685B6803F40033002B6A
:1025240003D0BA693B691343BB611A4ABB69536060
:10253400184B1B68BB613B69DB43BA691340BB6141
:102544003B685B6803F48033002B03D0BA693B69B2
:102554001343BB610F4ABB691360FB690133FB6121
:10256400FB690F2B7FF6A2AE00BF00BF2437BD4628
:102574005DF8047B704700BF00380240003801401A
:10258400000002400004024000080240000C024027
:1025940000100240003C014080B485B000AF786078
:1025A4000B467B807B681A697B881340002B02D022
:1025B4000123FB7301E00023FB73FB7B18461437F4
:1025C400BD465DF8047B704780B483B000AF78608B
:1025D4000B467B8013467B707B78002B03D07A8874
:1025E4007B689A6103E07B881A047B689A6100BF68
:1025F4000C37BD465DF8047B7047000080B586B09B
:1026040000AF78607B68002B01D1012367E27B680F
:102614001B6803F00103002B75D0884B9B6803F003
:102624000C03042B0CD0854B9B6803F00C03082B84
:1026340012D1824B5B6803F48003B3F5800F0BD196
:102644007E4B1B6803F40033002B5BD07B685B6814
:10265400002B57D1012342E27B685B68B3F5803FCE
:1026640006D1764B1B68754A43F4803313601DE032
:102674007B685B68B3F5A02F0CD1704B1B686F4A65
:1026840043F4802313606D4B1B686C4A43F480331E
:1026940013600BE0694B1B68684A23F480331360B2
:1026A400664B1B68654A23F4802313607B685B6870
:1026B400002B13D0FEF732FB386108E0FEF72EFB47
:1026C40002463B69D31A642B01D9032307E25B4B0F
:1026D4001B6803F40033002BF0D014E0FEF71EFB5C
:1026E400386108E0FEF71AFB02463B69D31A642BF3
:1026F40001D90323F3E1514B1B6803F40033002B8E
:10270400F0D100E000BF7B681B6803F00203002BDC
:1027140063D04A4B9B6803F00C03002B0BD0474B50
:102724009B6803F00C03082B1CD1444B5B6803F437
:102734008003002B16D1414B1B6803F00203002BCE
:1027440005D07B68DB68012B01D00123C7E13B4B3B
:102754001B6823F0F8027B681B69DB0037491343CD
:102764000B603AE07B68DB68002B20D0344B0122FD
:102774001A60FEF7D3FA386108E0FEF7CFFA024692
:102784003B69D31A022B01D90323A8E12B4B1B6805
:1027940003F00203002BF0D0284B1B6823F0F8024F
:1027A4007B681B69DB00254913430B6015E0244B50
:1027B40000221A60FEF7B2FA386108E0FEF7AEFABA
:1027C40002463B69D31A022B01D9032387E11B4B31
:1027D4001B6803F00203002BF0D17B681B6803F035
:1027E4000803002B36D07B685B69002B16D0154B91
:1027F40001221A60FEF792FA386108E0FEF78EFAB9
:1028040002463B69D31A022B01D9032367E10B4B20
:102814005B6F03F00203002BF0D01BE0094B002296
:102824001A60FEF77BFA38610EE0FEF777FA02468B
:102834003B69D31A022B07D9032350E10038024025
:1028440000004742800E4742884B5B6F03F002034F
:10285400002BEAD17B681B6803F00403002B00F013
:1028640097800023FB75814B1B6C03F08053002B76
:102874000FD10023BB607D4B1B6C7C4A43F080531B
:1028840013647A4B1B6C03F08053BB60BB68012359
:10289400FB75774B1B6803F48073002B18D1744BC2
:1028A4001B68734A43F480731360FEF737FA386188
:1028B40008E0FEF733FA02463B69D31A022B01D92A
:1028C40003230CE16A4B1B6803F48073002BF0D0E4
:1028D4007B689B68012B06D1644B1B6F634A43F0F2
:1028E400010313671CE07B689B68052B0CD15F4BCD
:1028F4001B6F5E4A43F0040313675C4B1B6F5B4A18
:1029040043F0010313670BE0584B1B6F574A23F046
:1029140001031367554B1B6F544A23F004031367D9
:102924007B689B68002B15D0FEF7F8F938610AE044
:10293400FEF7F4F902463B69D31A41F28832934216
:1029440001D90323CBE0494B1B6F03F00203002B97
:10295400EED014E0FEF7E2F938610AE0FEF7DEF9A2
:1029640002463B69D31A41F28832934201D90323C8
:10297400B5E03E4B1B6F03F00203002BEED1FB7D51
:10298400012B05D1394B1B6C384A23F08053136457
:102994007B689B69002B00F0A180344B9B6803F09B
:1029A4000C03082B5CD07B689B69022B41D1314B13
:1029B40000221A60FEF7B2F9386108E0FEF7AEF9BA
:1029C40002463B69D31A022B01D9032387E0274B24
:1029D4001B6803F00073002BF0D17B68DA697B6815
:1029E4001B6A1A437B685B6A9B011A437B689B6A78
:1029F4005B08013B1B041A437B68DB6A1B061B490B
:102A040013434B601B4B01221A60FEF787F93861B0
:102A140008E0FEF783F902463B69D31A022B01D979
:102A240003235CE0114B1B6803F00073002BF0D010
:102A340054E0104B00221A60FEF770F9386108E088
:102A4400FEF76CF902463B69D31A022B01D9032322
:102A540045E0064B1B6803F00073002BF0D13DE00A
:102A64007B689B69012B07D1012338E000380240C1
:102A740000700040600047421B4B5B68FB607B6852
:102A84009B69012B28D0FB6803F480027B68DB6917
:102A94009A4221D1FB6803F03F027B681B6A9A4289
:102AA4001AD1FA6847F6C07313407A68526A9201E1
:102AB400934211D1FB6803F440327B689B6A5B0844
:102AC400013B1B049A4207D1FB6803F070627B68E8
:102AD400DB6A1B069A4201D0012300E0002318465A
:102AE4001837BD4680BD00BF0038024080B584B0B1
:102AF40000AF786039607B68002B01D10123CCE002
:102B0400684B1B6803F007033A689A420CD9654B7B
:102B14003A68D2B21A70634B1B6803F007033A6831
:102B24009A4201D00123B8E07B681B6803F00203DA
:102B3400002B20D07B681B6803F00403002B05D016
:102B4400594B9B68584A43F4E05393607B681B6875
:102B540003F00803002B05D0534B9B68524A43F4FF
:102B640060439360504B9B6823F0F0027B689B6842
:102B74004D4913438B607B681B6803F00103002BF2
:102B840044D07B685B68012B07D1474B1B6803F477
:102B94000033002B19D101237FE07B685B68022B93
:102BA40003D07B685B68032B07D13F4B1B6803F0A2
:102BB4000073002B09D101236FE03B4B1B6803F02A
:102BC4000203002B01D1012367E0374B9B6823F0FC
:102BD40003027B685B68344913438B60FEF79EF8FD
:102BE400F8600AE0FEF79AF80246FB68D31A41F24D
:102BF4008832934201D903234FE02B4B9B6803F0A7
:102C04000C027B685B689B009A42EBD1254B1B68E6
:102C140003F007033A689A420CD2224B3A68D2B2C4
:102C24001A70204B1B6803F007033A689A4201D0DC
:102C3400012332E07B681B6803F00403002B08D0F7
:102C4400194B9B6823F4E0527B68DB6816491343F5
:102C54008B607B681B6803F00803002B09D0124BC0
:102C64009B6823F460427B681B69DB000E491343B5
:102C74008B6000F021F802460B4B9B681B0903F0A4
:102C84000F030A49CB5C22FA03F3094A1360094B88
:102C94001B681846FDF7FEFF002318461037BD4693
:102CA40080BD00BF003C024000380240B82E00083E
:102CB40000000020040000202DE9B04F90B000AFC8
:102CC40000237B630023FB6300233B630023BB637C
:102CD400594B9B6803F00C03082B0DD0082B00F212
:102CE400A180002B02D0042B03D09BE0534BBB6389
:102CF4009BE0534BBB6398E04F4B5B6803F03F038F
:102D04007B634D4B5B6803F48003002B28D04A4B54
:102D14005B689B0900223B627A623B6AC3F308004A
:102D24000021474B03FB01F2002300FB03F3134490
:102D3400434AA0FB0212FA620A46BA62FA6A1344D0
:102D4400FB627B6B0022BB61FA61D7E90623D7E9FA
:102D54000A01FDF73DFA02460B461346FB6353E0B6
:102D6400354B5B689B0900223B617A613B69C3F385
:102D7400080A4FF0000B52465B464FF000004FF03C
:102D84000001590141EAD261500102460B46B2EBFF
:102D94000A0863EB0B094FF000024FF000034FEAFF
:102DA400891343EA98634FEA8812B2EB080463EB91
:102DB40009054FF000024FF00003EB0043EA54739F
:102DC400E20014461D4614EB0A033B6045EB0B037B
:102DD4007B604FF000024FF00003D7E9004529461D
:102DE4008B02214643EA915321468A021046194632
:102DF4007B6B0022BB60FA60D7E90223FDF7E8F998
:102E040002460B461346FB630B4B5B681B0C03F03B
:102E1400030301335B003B63FA6B3B6BB2FBF3F3DD
:102E2400BB6302E0054BBB6300BFBB6B1846403776
:102E3400BD46BDE8B08F00BF003802400024F40056
:102E440040787D0102440346934200D1704703F861
:102E5400011BF9E770B50D4D0D4C641BA410002641
:102E6400A64209D10B4D0C4C00F018F8641BA410B9
:102E74000026A64205D170BD55F8043B984701369B
:102E8400EEE755F8043B98470136F2E7D82E0008E0
:102E9400D82E0008D82E0008DC2E0008F8B500BF94
:102EA400F8BC08BC9E467047F8B500BFF8BC08BC27
:042EB4009E4670477F
:102EB80000000000000000000102030406070809E2
:082EC8000006101600061016AA
:082ED00034D3FF7F0100000074
:042ED800B901000834
:042EDC009501000854
:0C2EE0000024F4001000000001000000BD
:0400000508000C01E2
:00000001FF
